:020000040000fa
:080000000002040000000000f2
:020000040000fa
:0400080002030000ef
:020000040000fa
:04000c0002030000eb
:020000040000fa
:0400100002030000e7
:020000040000fa
:0400140002030000e3
:020000040000fa
:0400180002030000df
:020000040000fa
:04001c0002030000db
:020000040000fa
:0400200002030000d7
:020000040000fa
:0400240002030000d3
:020000040000fa
:0400280002030000cf
:020000040000fa
:04002c0002030000cb
:020000040000fa
:0400300002030000c7
:020000040000fa
:0400340002030000c3
:020000040000fa
:0400380002030000bf
:020000040000fa
:04003c0002030000bb
:020000040000fa
:0400400002030000b7
:020000040000fa
:0400440002030000b3
:020000040000fa
:0400480002030000af
:020000040000fa
:04004c0002030000ab
:020000040000fa
:0400500002030000a7
:020000040000fa
:0400540002030000a3
:020000040000fa
:04005800020300009f
:020000040000fa
:04005c00020300009b
:020000040000fa
:040060000203000097
:020000040000fa
:040064000203000093
:020000040000fa
:04006800020300008f
:020000040000fa
:04006c00020300008b
:020000040000fa
:040070000203000087
:020000040000fa
:040074000203000083
:020000040000fa
:04007800020300007f
:020000040000fa
:04007c00020300007b
:020000040000fa
:040080000203000077
:020000040000fa
:040084000203000073
:020000040000fa
:04008800020300006f
:020000040000fa
:04008c00020300006b
:020000040000fa
:040090000203000067
:020000040000fa
:040094000203000063
:020000040000fa
:04009800020300005f
:020000040000fa
:04009c00020300005b
:020000040000fa
:0400a0000203000057
:020000040000fa
:0400a4000203000053
:020000040000fa
:0400a800020300004f
:020000040000fa
:0400ac00020300004b
:020000040000fa
:0400b0000203000047
:020000040000fa
:0400b4000203000043
:020000040000fa
:0400b800020300003f
:020000040000fa
:0400bc00020300003b
:020000040000fa
:0400c0000203000037
:020000040000fa
:0400c4000203000033
:020000040000fa
:0400c800020300002f
:020000040000fa
:0400cc00020300002b
:020000040000fa
:0400d0000203000027
:020000040000fa
:0400d4000203000023
:020000040000fa
:0400d800020300001f
:020000040000fa
:0400dc00020300001b
:020000040000fa
:0400e0000203000017
:020000040000fa
:0400e4000203000013
:020000040000fa
:0400e800020300000f
:020000040000fa
:0400ec00020300000b
:020000040000fa
:0400f0000203000007
:020000040000fa
:0400f4000203000003
:020000040000fa
:0400f80002030000ff
:020000040000fa
:0400fc0002030000fb
:020000040000fa
:0401000002030000f6
:020000040000fa
:0401040002030000f2
:020000040000fa
:0401080002030000ee
:020000040000fa
:04010c0002030000ea
:020000040000fa
:0401100002030000e6
:020000040000fa
:0401140002030000e2
:020000040000fa
:0401180002030000de
:020000040000fa
:04011c0002030000da
:020000040000fa
:0401200002030000d6
:020000040000fa
:0401240002030000d2
:020000040000fa
:0401280002030000ce
:020000040000fa
:04012c0002030000ca
:020000040000fa
:0401300002030000c6
:020000040000fa
:0401340002030000c2
:020000040000fa
:0401380002030000be
:020000040000fa
:04013c0002030000ba
:020000040000fa
:0401400002030000b6
:020000040000fa
:0401440002030000b2
:020000040000fa
:0401480002030000ae
:020000040000fa
:04014c0002030000aa
:020000040000fa
:0401500002030000a6
:020000040000fa
:0401540002030000a2
:020000040000fa
:04015800020300009e
:020000040000fa
:04015c00020300009a
:020000040000fa
:040160000203000096
:020000040000fa
:040164000203000092
:020000040000fa
:04016800020300008e
:020000040000fa
:04016c00020300008a
:020000040000fa
:040170000203000086
:020000040000fa
:040174000203000082
:020000040000fa
:04017800020300007e
:020000040000fa
:04017c00020300007a
:020000040000fa
:040180000203000076
:020000040000fa
:040184000203000072
:020000040000fa
:04018800020300006e
:020000040000fa
:04018c00020300006a
:020000040000fa
:040190000203000066
:020000040000fa
:040194000203000062
:020000040000fa
:04019800020300005e
:020000040000fa
:04019c00020300005a
:020000040000fa
:0401a0000203000056
:020000040000fa
:0401a4000203000052
:020000040000fa
:0401a800020300004e
:020000040000fa
:0401ac00020300004a
:020000040000fa
:0401b0000203000046
:020000040000fa
:0401b4000203000042
:020000040000fa
:0401b800020300003e
:020000040000fa
:0401bc00020300003a
:020000040000fa
:0401c0000203000036
:020000040000fa
:0401c4000203000032
:020000040000fa
:0401c800020300002e
:020000040000fa
:0401cc00020300002a
:020000040000fa
:0401d0000203000026
:020000040000fa
:0401d4000203000022
:020000040000fa
:0401d800020300001e
:020000040000fa
:0401dc00020300001a
:020000040000fa
:0401e0000203000016
:020000040000fa
:0401e4000203000012
:020000040000fa
:0401e800020300000e
:020000040000fa
:0401ec00020300000a
:020000040000fa
:0401f0000203000006
:020000040000fa
:0401f4000203000002
:020000040000fa
:0401f80002030000fe
:020000040000fa
:0401fc0002030000fa
:020000040000fa
:0402000002030000f5
:020000040000fa
:0402040002030000f1
:020000040000fa
:0402080002030000ed
:020000040000fa
:04020c0002030000e9
:020000040000fa
:0402100002030000e5
:020000040000fa
:0402140002030000e1
:020000040000fa
:0402180002030000dd
:020000040000fa
:04021c0002030000d9
:020000040000fa
:0402200002030000d5
:020000040000fa
:0402240002030000d1
:020000040000fa
:0402280002030000cd
:020000040000fa
:04022c0002030000c9
:020000040000fa
:0402300002030000c5
:020000040000fa
:0402340002030000c1
:020000040000fa
:0402380002030000bd
:020000040000fa
:04023c0002030000b9
:020000040000fa
:0402400002030000b5
:020000040000fa
:0402440002030000b1
:020000040000fa
:0402480002030000ad
:020000040000fa
:04024c0002030000a9
:020000040000fa
:0402500002030000a5
:020000040000fa
:0402540002030000a1
:020000040000fa
:04025800020300009d
:020000040000fa
:04025c000203000099
:020000040000fa
:040260000203000095
:020000040000fa
:040264000203000091
:020000040000fa
:04026800020300008d
:020000040000fa
:04026c000203000089
:020000040000fa
:040270000203000085
:020000040000fa
:040274000203000081
:020000040000fa
:04027800020300007d
:020000040000fa
:04027c000203000079
:020000040000fa
:040280000203000075
:020000040000fa
:040284000203000071
:020000040000fa
:04028800020300006d
:020000040000fa
:04028c000203000069
:020000040000fa
:040290000203000065
:020000040000fa
:040294000203000061
:020000040000fa
:04029800020300005d
:020000040000fa
:04029c000203000059
:020000040000fa
:0402a0000203000055
:020000040000fa
:0402a4000203000051
:020000040000fa
:0402a800020300004d
:020000040000fa
:0402ac000203000049
:020000040000fa
:0402b0000203000045
:020000040000fa
:0402b4000203000041
:020000040000fa
:0402b800020300003d
:020000040000fa
:0402bc000203000039
:020000040000fa
:0402c0000203000035
:020000040000fa
:0402c4000203000031
:020000040000fa
:0402c800020300002d
:020000040000fa
:0402cc000203000029
:020000040000fa
:0402d0000203000025
:020000040000fa
:0402d4000203000021
:020000040000fa
:0402d800020300001d
:020000040000fa
:0402dc000203000019
:020000040000fa
:0402e0000203000015
:020000040000fa
:0402e4000203000011
:020000040000fa
:0402e800020300000d
:020000040000fa
:0402ec000203000009
:020000040000fa
:0402f0000203000005
:020000040000fa
:0402f4000203000001
:020000040000fa
:0402f80002030000fd
:020000040000fa
:0402fc0002030000f9
:020000040000fa
:0403000002030000f4
:020000040000fa
:0403040002030000f0
:020000040000fa
:0403080002030000ec
:020000040000fa
:04030c0002030000e8
:020000040000fa
:0403100002030000e4
:020000040000fa
:0403140002030000e0
:020000040000fa
:0403180002030000dc
:020000040000fa
:04031c0002030000d8
:020000040000fa
:0403200002030000d4
:020000040000fa
:0403240002030000d0
:020000040000fa
:0403280002030000cc
:020000040000fa
:04032c0002030000c8
:020000040000fa
:0403300002030000c4
:020000040000fa
:0403340002030000c0
:020000040000fa
:100400002f0921000eff26000e01880000000000c9
:10041000000020000000e000020032000001200087
:100420002002880014000700bf0007000000e00061
:1004300003003a00007a200001002000020037008b
:100440000000200001002000810f70000100320038
:100450000f000700000020000000e0000200320052
:1004600000000200000000009a08020000000000e6
:100470000040da000000fe00200020000000e00044
:1004800002003200100020009001880000000600e9
:10049000a1028800800478000000eb001f003700f4
:1004a000e284440054a0b4009905ba00e2844400f8
:1004b00054a0b4009906ba00e284440054a0b400e9
:1004c0000006eb00476fde00fd07b200ae018800ba
:1004d000636ce10003003a000ad801000000eb0061
:1004e0000e003700606ce10008003a00004deb00a0
:1004f0000a05e800020039003420ec000af0a000f0
:100500008b05e900f9ff3e00040037006168e10057
:10051000010032000086eb000b00070019c7ba008b
:100520001905ba000e04e00003003a000a00e000da
:10053000dbff3a0000000600fe07b200ae028800b2
:100540008a047800f5ff37000cd0a300e20f4d00bd
:100550001c00390089027800354dba000a05e80010
:10056000020039003420ec000af0a0008b05e900fd
:100570000f003200254dba000a05e80002003900dc
:100580003420ec000af0a0008b05e90008003200de
:100590000c00e0000600320015cdba000a05e800a4
:1005a000020039003420ec000af0a0008b05e900bd
:1005b0008984e80054a0b4000b00e000e2ff3a0098
:1005c000000006009902ba00055d78008b05e9007d
:1005d000f7ff3200c82ade00055d78008b05e900d0
:1005e000f3ff32000c00e000f1ff320019ddba0029
:1005f000eeff370086050400000000000000040044
:10060000000000000040da000000fe000a00fa00ce
:1006100011002000b1bf9f00c0bf9f006a8057003b
:10062000eb0107004fb897000080fa0000000600b9
:100630000a00fa0051002000b1bf9f00c0bf9f0018
:100640006a805700e40107005fb897000080fa0055
:1006500000000600889fbe0080047800808480002f
:100660000000e00004003a000e0007000084eb00e8
:100670000000e00008003500888480000900e000e8
:100680000500320009004400060007000000e000f9
:1006900001003d000084eb00080078004f04be001c
:1006a00000000600800078000100e00003003a002e
:1006b0000000200080848800000005000080eb001e
:1006c00002002000828f500002003e0081848800da
:1006d0000000eb00000006000800fa001007980078
:1006e0002107980032079800be009000010f7800a3
:1006f000070037002e00900010407800ae009000f8
:100700008100e80021079800dc0107001e0fe900c6
:100710001e0078000000e000f6ff3a003e00900066
:100720000080fa00000006000000050081022100a0
:1007300000003700889fbe008a1f78000004be00ba
:10074000c900900069009000808f500006003900b9
:100750000900780059000700800078000080eb0055
:100760000100e000170035000845780049009000be
:1007700008587800c00498001900780000b8a30059
:1007800004003a0000a8a30008003200ea4f540019
:1007900006003a00090078000d000700800078008c
:1007a0000080eb000100e00006003a0000c02000dd
:1007b000190060000200320049009000e004980037
:1007c0000a80fb004f0578004f04be0000000600c1
:1007d000889fbe008a1f7800000478000800e000af
:1007e0000d003a0068072100700544008004eb000a
:1007f000580078000000e00004003200f4ff070019
:100800000000e00001003d008084eb008a0f5400ee
:10081000f7ff3a00250037000000220018006000b2
:100820008004eb0021003200a80490000f00370084
:1008300009015100384090000000fb008900780059
:10084000a5ff07000000e00007003c002800900022
:100850004004980060049800500c98001890a00084
:100860008084eb0011003700808444004801900030
:10087000828f5400eeff3900280090004004980059
:100880009800780002c020000281600001003a0058
:100890003800900001e8a3000200320060049800d4
:1008a00001003700500c98008004eb00090078002c
:1008b0004f0578004f04be0000000600889fbe0070
:1008c0008a1f780000047800c8009000680190003a
:1008d0000000eb00828f50003c00390018007800c7
:1008e0002200290002016000e20f510007003200df
:1008f000012020000000e00001003500012024005c
:10090000008c70000080eb003000370002002600f1
:1009100002006000820f500009003a003800900089
:10092000808f50000600390008007800a8ff0700fb
:10093000800078000080eb000100e00023003a0016
:100940001805780000c020000000650018003a007b
:10095000a80490006002200008004000808f54002e
:1009600013003a0000202000d8000700200498005f
:100970000000e00005003a002904980049049800ae
:100980008904e80039049800080037000a60a000d4
:100990000a0c78004004980001202000808040006c
:1009a00031049800400c9800500c98000c0007008f
:1009b00028009000500498003800900060049800cf
:1009c00000002600180c70000000eb004f057800b6
:1009d0004f04be000000060060582000e50037000c
:1009e000881f7800c80821001804e00003003a00be
:1009f000f9ff070020c0b300004c78004f047800d6
:100a000000000600889fbe000004780008007800ff
:100a10006fff0700800478000004200018006000c9
:100a20000200320028009000430007000000eb00a5
:100a300020049800384090000004e00005003500d4
:100a40000000fb00f1fe07000000e00001003200a2
:100a50008084eb00181090000000e00008003200d5
:100a6000f3fe07000000e000010032008084eb008c
:100a700018109000300007000000eb0010149800e0
:100a800000082000180060000f00320061072100fc
:100a90000000eb00d10f140005003a0000004000f8
:100aa00081072100008040000008eb0003003700b0
:100ab0000000e800e80f5000f6ff3a000800780058
:100ac0001d0007000e003700000c780000c0eb008e
:100ad0003044980060022000080040002004980084
:100ae0004004980050049800400c9800600498005e
:100af000500c98007004980076004400000c980098
:100b0000090078004f04be0000000600889fbe0068
:100b100088082100f0045400480078000000e0003c
:100b200001003200b7ff0700890f5400faff3a00b6
:100b30004f04be00000006000000e0002f0032005d
:100b4000c0017800e38f51002c0036000308a30099
:100b50002a003a00518480000100e00002003200c7
:100b6000810f50000400310011009800508488006b
:100b70001600370082007800110190000200e000aa
:100b800002003200800f5100faff39001102780094
:100b900084824000850f500018003900808f520079
:100ba00003003a0083084200010078000700370084
:100bb0000200e0000300320083014000830f510077
:100bc0000e003900120098009000980090009000ec
:100bd0000100e0000900320010014000828f500047
:100be00006003a00820821000009eb00100178009d
:100bf00011084100910090001100980000000600cb
:100c0000889fbe0000047800418480000100e0005d
:100c100002003200010078000d003700518480008e
:100c2000a008210004003700910f54002500360071
:100c30000180e800910090000100e000faff3a0016
:100c400010003700920f54001e0036000280e800aa
:100c5000100178000200e000faff3a00110178006c
:100c600051848000a008210004003700910f540037
:100c7000140036000180e80091009000828f50003f
:100c8000faff3a0079848000888f54000100310017
:100c90008804780009007800430007000000e000a5
:100ca00004003a00888f5400050032008904d10006
:100cb000f5ff3700091878009fff0700d2ff3700c3
:100cc0000000eb004f04be0000000600881f780003
:100cd000630440000800a1008000eb00800f540076
:100ce00021003600e30f540001003e0048002000c0
:100cf00008007800c2ff07008000eb000000e00061
:100d00001900320090007800910178006481510050
:100d1000880f510003003100110190000208780093
:100d20000700370008814000020878009101900018
:100d30001301980010017800110914008808780048
:100d4000100178000000eb000200e0000400320017
:100d5000920190000300e000010032000280e800f0
:100d6000408488008180e800010078004f0478000a
:100d700000000600010020000100e0000900320030
:100d8000010080000100e000060032008100e9005f
:100d90000100880081804000020080008100410045
:100da0008008780000000600800078000000eb005a
:100db0000100e000050034000100780025fe070076
:100dc000e10f400001003a000000eb0000000600c7
:100dd00000c0da000000060000c0da0000000600d3
:020000040000fa
:100de0000000fa0000082000c01188003a22ef003d
:100df0003c22ef0020022000f0118800007a200041
:100e0000001288004222ef004c22ef004e22ef0039
:100e10005022ef005222ef005422ef005622ef0042
:100e20005822ef005a22ef005c22ef0039e2a800be
:100e300038a2a8003882a8000080fa00000006004e
:100e40000000fa0000000000f01180006200600065
:100e50000000e000fcff3a00e0118000620060004a
:100e60000000e000010032003c22a90020128000b6
:100e7000004078000080fa00000006000200fa003e
:100e8000004f780000000000f0118000700060004a
:100e90000000e000fcff3a001e80fb0040128800ca
:100ea0000080fa00000006000000fa00f011800047
:100eb0006200600000f0a7000000ea000000e90006
:100ec0004f00de00004078000080fa0000000600bd
:100ed0000000fa00f0118000700060000000e000e7
:100ee00007003a00c111800000022000008060006d
:100ef0000000e00002003200100020000100370076
:100f00000000eb00004078000080fa0000000600be
:100f10000000fa00e011800077800a000000000065
:100f20000080fb0000f0a7000000ea000000ea00db
:100f30004f00de00004078000080fa00000006004c
:020000040000fa
:100f40000010000088000000820000000100000086
:100f5000002610002710260010261000261026005c
:100f6000101610000000000000000000000000004b
:100f70000000000000000000000000000000000071
:100f80000002080001014e00104f10004e104e00ec
:100f9000104e10004e103e00100000000000000037
:100fa0000000000000000000000000000000000041
:100fb0000000000000000200080202007610770026
:100fc0001076100076107600107610006610000083
:100fd0000000000000000000000000000000000011
:100fe00000000000000000000000000000102800c9
:100ff0001050100000000000000000000000000081
:10100000000000008c1000000200000080000000c2
:101010008e100000020000008200000004000000aa
:101020008810000004000000800000009010000004
:0c10300002000000800000000000000032
:020000040000fa
:10103c000000fa00062eef00222eef003e2eef00ed
:10104c005a2eef00762eef00f00120001070880071
:10105c00d03f2000f07088000080eb00d071880039
:10106c00f0c02e00b0728800f0f92f009073880049
:10107c000c2eef00282eef00442eef00602eef0018
:10108c007c2eef000a2eef00262eef00422eef00f2
:10109c005e2eef007a2eef00082eef00242eef00cc
:1010ac00402eef005c2eef00782eef00f0012000b8
:1010bc0000708800c0092000e0708800f00c20004f
:1010cc00c071880000c02200a0728800f0002000cf
:1010dc00807388000000eb0051052000b1468800a9
:1010ec00a10a2000b146880000688800216d8000ac
:1010fc0000fc2f00008060000000a000206d880024
:10110c0030c4b30028edb70000802000510520004a
:10111c00b1468800a10a2000b1468800006888000a
:10112c000080fa00000006000200fa00050007002b
:10113c0040ff0700004f78001e80fb0078fd070081
:10114c00fbff37000000fa00b9ff070021ff070082
:08115c000080fa00000006000b
:020000040000fa
:020000040005f5
:047e0000ffffff0081
:020000040000fa
:020000040005f5
:047e2000ffffff0061
:020000040000fa
:020000040005f5
:047e3000fbffff0055
:020000040000fa
:020000040005f5
:047e3800b9ffff008f
:020000040000fa
:020000040005f5
:047e40006003ff00dc
:020000040000fa
:020000040005f5
:047e4800ffffff0039
:020000040000fa
:020000040005f5
:047e5000dfffff0051
:020000040000fa
:020000040005f5
:047e58000000ff0027
:020000040000fa
:020000040005f5
:047e60000000ff001f
:020000040000fa
:020000040005f5
:047e68000000ff0017
:020000040000fa
:020000040005f5
:047e70000000ff000f
:020000040000fa
:020000040005f5
:047e7800ffffff0009
:020000040000fa
:020000040005f5
:047e8000fffcff0004
:020000040000fa
:020000040005f5
:047e8800ffffff00f9
:020000040000fa
:020000040005f5
:047ff800ffffff0088
:020000040000fa
:020000040100f9
:04300000ffffff00cf
:00000001FF
